{
  "contractName": "KYCPlus",
  "abi": [
    {
      "constant": false,
      "inputs": [
        {
          "name": "_fName",
          "type": "string"
        },
        {
          "name": "_mName",
          "type": "string"
        },
        {
          "name": "_lName",
          "type": "string"
        },
        {
          "name": "_age",
          "type": "uint256"
        },
        {
          "name": "_customerAddress",
          "type": "string"
        }
      ],
      "name": "setCustomerDetails",
      "outputs": [],
      "payable": true,
      "stateMutability": "payable",
      "type": "function"
    },
    {
      "constant": true,
      "inputs": [],
      "name": "getCustomerDetails",
      "outputs": [
        {
          "name": "",
          "type": "string"
        },
        {
          "name": "",
          "type": "string"
        },
        {
          "name": "",
          "type": "string"
        },
        {
          "name": "",
          "type": "uint256"
        },
        {
          "name": "",
          "type": "string"
        }
      ],
      "payable": false,
      "stateMutability": "view",
      "type": "function"
    }
  ],
  "bytecode": "0x6060604052341561000f57600080fd5b61074b8061001e6000396000f30060606040526004361061004c576000357c0100000000000000000000000000000000000000000000000000000000900463ffffffff16806315d4d56114610051578063adc5d7781461022a575b600080fd5b341561005c57600080fd5b61006461034e565b604051808060200180602001806020018681526020018060200185810385528a818151815260200191508051906020019080838360005b838110156100b657808201518184015260208101905061009b565b50505050905090810190601f1680156100e35780820380516001836020036101000a031916815260200191505b50858103845289818151815260200191508051906020019080838360005b8381101561011c578082015181840152602081019050610101565b50505050905090810190601f1680156101495780820380516001836020036101000a031916815260200191505b50858103835288818151815260200191508051906020019080838360005b83811015610182578082015181840152602081019050610167565b50505050905090810190601f1680156101af5780820380516001836020036101000a031916815260200191505b50858103825286818151815260200191508051906020019080838360005b838110156101e85780820151818401526020810190506101cd565b50505050905090810190601f1680156102155780820380516001836020036101000a031916815260200191505b50995050505050505050505060405180910390f35b61034c600480803590602001908201803590602001908080601f0160208091040260200160405190810160405280939291908181526020018383808284378201915050505050509190803590602001908201803590602001908080601f0160208091040260200160405190810160405280939291908181526020018383808284378201915050505050509190803590602001908201803590602001908080601f0160208091040260200160405190810160405280939291908181526020018383808284378201915050505050509190803590602001909190803590602001908201803590602001908080601f016020809104026020016040519081016040528093929190818152602001838380828437820191505050505050919050506105fc565b005b610356610666565b61035e610666565b610366610666565b6000610370610666565b6000600160026003546004848054600181600116156101000203166002900480601f0160208091040260200160405190810160405280929190818152602001828054600181600116156101000203166002900480156104105780601f106103e557610100808354040283529160200191610410565b820191906000526020600020905b8154815290600101906020018083116103f357829003601f168201915b50505050509450838054600181600116156101000203166002900480601f0160208091040260200160405190810160405280929190818152602001828054600181600116156101000203166002900480156104ac5780601f10610481576101008083540402835291602001916104ac565b820191906000526020600020905b81548152906001019060200180831161048f57829003601f168201915b50505050509350828054600181600116156101000203166002900480601f0160208091040260200160405190810160405280929190818152602001828054600181600116156101000203166002900480156105485780601f1061051d57610100808354040283529160200191610548565b820191906000526020600020905b81548152906001019060200180831161052b57829003601f168201915b50505050509250808054600181600116156101000203166002900480601f0160208091040260200160405190810160405280929190818152602001828054600181600116156101000203166002900480156105e45780601f106105b9576101008083540402835291602001916105e4565b820191906000526020600020905b8154815290600101906020018083116105c757829003601f168201915b50505050509050945094509450945094509091929394565b846000908051906020019061061292919061067a565b50836001908051906020019061062992919061067a565b50826002908051906020019061064092919061067a565b5081600381905550806004908051906020019061065e92919061067a565b505050505050565b602060405190810160405280600081525090565b828054600181600116156101000203166002900490600052602060002090601f016020900481019282601f106106bb57805160ff19168380011785556106e9565b828001600101855582156106e9579182015b828111156106e85782518255916020019190600101906106cd565b5b5090506106f691906106fa565b5090565b61071c91905b80821115610718576000816000905550600101610700565b5090565b905600a165627a7a723058203bd48a546240b9dd70d062274baa9c9a46bfebc9638779c8ad5e1d1cb49e9e9d0029",
  "source": "pragma solidity ^0.4.19;\r\n\r\ncontract KYCPlus {\r\n  \r\n    string firstName;\r\n    string middleName;\r\n    string lastName;\r\n    uint age;\r\n    string customerAddress;\r\n   \r\n   function setCustomerDetails(string _fName, string _mName, string _lName, uint _age, string _customerAddress) public payable {\r\n       firstName = _fName;\r\n       middleName = _mName;\r\n       lastName = _lName;\r\n       age = _age;\r\n       customerAddress = _customerAddress;\r\n       \r\n   }\r\n   \r\n   function getCustomerDetails() public constant returns (string, string, string, uint, string) {\r\n       return (firstName,middleName,lastName,age,customerAddress);\r\n   }\r\n    \r\n}",
  "sourcePath": "C:\\Users\\Ktenshi16\\Documents\\Hackathons\\Brainchain\\KYCPlus\\contracts\\KYCPlus.sol",
  "compiler": {
    "name": "solc",
    "version": "0.4.19+commit.c4cbbb05.Emscripten.clang"
  },
  "schemaVersion": "1.0.1",
  "updatedAt": "2018-02-12T10:57:57.743Z"
}